:02000000FD2BD6
:100328003F308312BF009930BE009930BD009A302B
:10033800BC004030C3008C30C200CC30C100CD308E
:10034800C0004308A3004208A2004108A1004008D9
:10035800A0003F08A7003E08A6003D08A5003C08ED
:10036800A400C02183122308BB002208BA00210878
:10037800B9002008B800BF29831223088039A800D3
:100388002808B4002308A8002807A9002908B600EF
:10039800A21B361436080319DF29360A031DDC2987
:1003A8000030A3000030A2000030A1000030A000FF
:1003B800A217A301E7290030A3000030A2000030F3
:1003C800A1000030A00027088039A8002808B5003F
:1003D80035083406031D34172708A8002807A90084
:1003E8002908B500A61B351435080319092A350A4A
:1003F800031D062A0030A7000030A6000030A50023
:100408000030A400A617A701112A0030A700003069
:10041800A6000030A5000030A400360835020318F5
:10042800572A341F1B2A8030A8002808B40636082B
:10043800A8002808B7003508A8002808B60037081B
:10044800A8002808B5002008A8002808B700240834
:10045800A8002808A0003708A8002808A400210838
:10046800A8002808B7002508A8002808A100370810
:10047800A8002808A5002208A8002808B700260810
:10048800A8002808A2003708A8002808A600230802
:10049800A8002808B7002708A8002808A3003708DC
:1004A800A8002808A700B7013608A800A901A809CC
:1004B800A909A80A0319A90A35082807AA002908BA
:1004C8000318290AAB002B08803ADF0080305F024E
:1004D800031D702A1A302A02031CA82A8312230833
:1004E80022042104200403197B2A01307C2A0030CD
:1004F800A8002808B7000030A3000030A200003090
:10050800A1000030A0003508A8002808B600AD2AD0
:10051800371C972A3708A8000310280C0138A900AF
:100528002908B700992A0310B70C2018B71701300B
:10053800A800230DA30CA20CA10CA00CA80B9D2AAB
:100548000130A8002808B607831235083602031CB4
:100558008C2A341BED2A3608031DBB2A0030A30061
:100568000030A2000030A1000030A00008002408DC
:10057800A007250803110318013E031DA10726083B
:1005880003110318013E031DA207270803110318CE
:10059800013E031DA307231C9C2B371CDB2A0310D9
:1005A800B70C37080138A8002808B700DD2A03105F
:1005B800B70C2018B7170130A800230DA30CA20C04
:1005C800A10CA00CA80BE12A0130A8002808B60746
:1005D8009C2B2308803ADF002708803A5F02031D1E
:1005E800FF2A26082202031DFF2A25082102031DCF
:1005F800FF2A240820020318642BFF30A800FF30CC
:10060800A900FF30AA00FF30AB002408AC00250881
:10061800AD002608AE002708AF002009B000210968
:10062800B1002209B2002309B300B00A0319B10AC4
:100638000319B20A0319B30A3008AC0731080318C2
:10064800310F272B282BAD0732080318320F2D2B1B
:100658002E2BAE0733080318330AAF072C08A80758
:100668002D0803182D0F392B3A2BA9072E0803182C
:100678002E0F3F2B402BAA072F0803182F0AAB0772
:100688002B08A3002A08A2002908A1002808A00016
:100698008030A8002808B406B709B70A3708031D30
:1006A800722B0130A007003003180130A107003079
:1006B80003180130A207003003180130A307722B7A
:1006C8002408A0022508031C250FA1022608031CE4
:1006D800260FA2022708031C270FA30223082204BF
:1006E80021042004031D9A2B3708031D9A2B003080
:1006F800A3000030A2000030A1000030A0000800D4
:100708000130A8000310A00DA10DA20DA30DA80B88
:10071800862BB71B2014371C932B0314942B031020
:10072800B70D360803199A2B0130B602A21F842B85
:10073800B501B71FA72B37087F39031DA52B201C30
:10074800A72BB501B50A35080319DA2B0130A00724
:10075800003003180130A107003003180130A20748
:10076800003003180130A307231CDA2B2008A80047
:100778002108A9002208AA002308AB000130AC0018
:100788002B0DAB0CAA0CA90CA80CAC0BC42B2B087A
:10079800A3002A08A2002908A1002808A000360AF8
:1007A8000319DA2B0130A8002808B607360A031DFA
:1007B8003608031DEA2B0030A3000030A2000030E9
:1007C800A1000030A00036080319B401361CEE2B36
:1007D800A217F22B7F30A8002808A2053608A80027
:1007E8000310280CA9002908A300B41F0800A317A8
:0607F800080083019429B2
:02400E00B431CB
:00000001FF
