:02000000F42BDF
:10059400E8340334D12264001F23CD2A00283C30E0
:1005A40083168500811281110730810408008312AB
:1005B40005103B08A0003C08A1000030A11BFF303F
:1005C400A200A300831205143B08A0003C08A1006C
:1005D4000030A11BFF30A200A300080083123A08D8
:1005E400AC00AD012C08A0002D08A1003908AE0014
:1005F400AF012E08A2002F08A30081238312210833
:10060400B1002008B000102B6400D922FF308312FF
:10061400B0070318B10AFF30B107102B3108803A34
:10062400DF0080305F02031D192B013030020318F4
:100634001C2B1D2B062B1E2B08008312B701B8019F
:10064400851D252B262B7E2B3D18292B2A2B802B11
:100654000030B6000330B5000D30B4004030B300B4
:10066400672BFF30B307FF30031CB407FF30031CB4
:10067400B507FF30031CB607640083128519432BAA
:10068400442B5A2B3D140130B7000030B800851AB2
:100694004C2B4D2B522B3708B2003208BA07802B53
:1006A4003708B2003208B907802B802B802B672BC8
:1006B4003608350434043304031D612B622B672B85
:1006C400F022802B802B672B672B8312B61B7B2B8E
:1006D4003608031D7A2B3508031D7A2B3408031DB5
:1006E4007A2B01303302031D772B03187A2B7B2BD3
:1006F400332B802B802B802B3D10802B0800831202
:100704002308AB002208AA000130A8000030A90089
:10071400A401A5012108A7002008A600220823049B
:10072400031D952B962BA92BA001A101F32BF32BD1
:10073400A92B01300310AA0DAB0DFF3E031D9C2B0A
:1007440001300310A80DA90DFF3E031DA32B2B0898
:100754002702031DAF2B2A0826020318B22BB32B42
:100764009B2BB42B01300310AB0CAA0CFF3E031DD2
:10077400B52B01300310A90CA80CFF3E031DBC2BA4
:10078400E72B2B082702031DC92B2A082602031C6A
:10079400CC2BCD2BD82B2A08A6022B08031CA7038D
:1007A400A7022808A4042908A504D82B01300310A3
:1007B400A90CA80CFF3E031DD92B01300310AB0C70
:1007C400AA0CFF3E031DE02BE72B28082904031D78
:1007D400EC2BED2BC32BEE2B2508A1002408A00045
:1007E400F32B0800CA22BB00CB22BC00B701B8011E
:0A07F400B901BA01BD018301CC2A4E
:00000001FF
